{"abi":[{"type":"function","name":"balances","inputs":[{"name":"","type":"address","internalType":"address"}],"outputs":[{"name":"","type":"uint256","internalType":"uint256"}],"stateMutability":"view"},{"type":"function","name":"deposit","inputs":[],"outputs":[],"stateMutability":"payable"},{"type":"function","name":"getBalance","inputs":[{"name":"user","type":"address","internalType":"address"}],"outputs":[{"name":"","type":"uint256","internalType":"uint256"}],"stateMutability":"view"},{"type":"function","name":"withdraw","inputs":[{"name":"amount","type":"uint256","internalType":"uint256"}],"outputs":[],"stateMutability":"nonpayable"},{"type":"event","name":"Deposit","inputs":[{"name":"user","type":"address","indexed":true,"internalType":"address"},{"name":"amount","type":"uint256","indexed":false,"internalType":"uint256"}],"anonymous":false},{"type":"event","name":"Withdraw","inputs":[{"name":"user","type":"address","indexed":true,"internalType":"address"},{"name":"amount","type":"uint256","indexed":false,"internalType":"uint256"}],"anonymous":false}],"bytecode":{"object":"0x6080604052348015600e575f5ffd5b5061059d8061001c5f395ff3fe60806040526004361061003e575f3560e01c806327e235e3146100425780632e1a7d4d1461007e578063d0e30db0146100a6578063f8b2cb4f146100b0575b5f5ffd5b34801561004d575f5ffd5b50610068600480360381019061006391906103ab565b6100ec565b60405161007591906103ee565b60405180910390f35b348015610089575f5ffd5b506100a4600480360381019061009f9190610431565b610100565b005b6100ae610266565b005b3480156100bb575f5ffd5b506100d660048036038101906100d191906103ab565b610308565b6040516100e391906103ee565b60405180910390f35b5f602052805f5260405f205f915090505481565b805f5f3373ffffffffffffffffffffffffffffffffffffffff1673ffffffffffffffffffffffffffffffffffffffff1681526020019081526020015f2054101561017f576040517f08c379a0000000000000000000000000000000000000000000000000000000008152600401610176906104b6565b60405180910390fd5b805f5f3373ffffffffffffffffffffffffffffffffffffffff1673ffffffffffffffffffffffffffffffffffffffff1681526020019081526020015f205f8282546101ca9190610501565b925050819055503373ffffffffffffffffffffffffffffffffffffffff166108fc8290811502906040515f60405180830381858888f19350505050158015610214573d5f5f3e3d5ffd5b503373ffffffffffffffffffffffffffffffffffffffff167f884edad9ce6fa2440d8a54cc123490eb96d2768479d49ff9c7366125a94243648260405161025b91906103ee565b60405180910390a250565b345f5f3373ffffffffffffffffffffffffffffffffffffffff1673ffffffffffffffffffffffffffffffffffffffff1681526020019081526020015f205f8282546102b19190610534565b925050819055503373ffffffffffffffffffffffffffffffffffffffff167fe1fffcc4923d04b559f4d29a8bfc6cda04eb5b0d3c460751c2402c5c5cc9109c346040516102fe91906103ee565b60405180910390a2565b5f5f5f8373ffffffffffffffffffffffffffffffffffffffff1673ffffffffffffffffffffffffffffffffffffffff1681526020019081526020015f20549050919050565b5f5ffd5b5f73ffffffffffffffffffffffffffffffffffffffff82169050919050565b5f61037a82610351565b9050919050565b61038a81610370565b8114610394575f5ffd5b50565b5f813590506103a581610381565b92915050565b5f602082840312156103c0576103bf61034d565b5b5f6103cd84828501610397565b91505092915050565b5f819050919050565b6103e8816103d6565b82525050565b5f6020820190506104015f8301846103df565b92915050565b610410816103d6565b811461041a575f5ffd5b50565b5f8135905061042b81610407565b92915050565b5f602082840312156104465761044561034d565b5b5f6104538482850161041d565b91505092915050565b5f82825260208201905092915050565b7f496e73756666696369656e742062616c616e63650000000000000000000000005f82015250565b5f6104a060148361045c565b91506104ab8261046c565b602082019050919050565b5f6020820190508181035f8301526104cd81610494565b9050919050565b7f4e487b71000000000000000000000000000000000000000000000000000000005f52601160045260245ffd5b5f61050b826103d6565b9150610516836103d6565b925082820390508181111561052e5761052d6104d4565b5b92915050565b5f61053e826103d6565b9150610549836103d6565b9250828201905080821115610561576105606104d4565b5b9291505056fea2646970667358221220e5ae2fbe881dfd29abe66999b7f28a243235a8d7f9ac911a8e1eecf892cb16ad64736f6c63430008210033","linkReferences":{}},"methodIdentifiers":{"balances(address)":"27e235e3","deposit()":"d0e30db0","getBalance(address)":"f8b2cb4f","withdraw(uint256)":"2e1a7d4d"},"id":0}